{
  "address": "0x6ADd8F5Cd2faE7389828a2FEC4870F349F062685",
  "abi": [
    {
      "inputs": [],
      "stateMutability": "nonpayable",
      "type": "constructor"
    },
    {
      "anonymous": false,
      "inputs": [
        {
          "indexed": true,
          "internalType": "address",
          "name": "owner",
          "type": "address"
        },
        {
          "indexed": true,
          "internalType": "address",
          "name": "approved",
          "type": "address"
        },
        {
          "indexed": true,
          "internalType": "uint256",
          "name": "tokenId",
          "type": "uint256"
        }
      ],
      "name": "Approval",
      "type": "event"
    },
    {
      "anonymous": false,
      "inputs": [
        {
          "indexed": true,
          "internalType": "address",
          "name": "owner",
          "type": "address"
        },
        {
          "indexed": true,
          "internalType": "address",
          "name": "operator",
          "type": "address"
        },
        {
          "indexed": false,
          "internalType": "bool",
          "name": "approved",
          "type": "bool"
        }
      ],
      "name": "ApprovalForAll",
      "type": "event"
    },
    {
      "anonymous": false,
      "inputs": [
        {
          "indexed": true,
          "internalType": "address",
          "name": "previousOwner",
          "type": "address"
        },
        {
          "indexed": true,
          "internalType": "address",
          "name": "newOwner",
          "type": "address"
        }
      ],
      "name": "OwnershipTransferred",
      "type": "event"
    },
    {
      "anonymous": false,
      "inputs": [
        {
          "indexed": true,
          "internalType": "address",
          "name": "from",
          "type": "address"
        },
        {
          "indexed": true,
          "internalType": "address",
          "name": "to",
          "type": "address"
        },
        {
          "indexed": true,
          "internalType": "uint256",
          "name": "tokenId",
          "type": "uint256"
        }
      ],
      "name": "Transfer",
      "type": "event"
    },
    {
      "inputs": [],
      "name": "MAX_SUPPLY",
      "outputs": [
        {
          "internalType": "uint256",
          "name": "",
          "type": "uint256"
        }
      ],
      "stateMutability": "view",
      "type": "function"
    },
    {
      "inputs": [],
      "name": "PRE_SALE_LIMIT",
      "outputs": [
        {
          "internalType": "uint256",
          "name": "",
          "type": "uint256"
        }
      ],
      "stateMutability": "view",
      "type": "function"
    },
    {
      "inputs": [],
      "name": "PRICE",
      "outputs": [
        {
          "internalType": "uint256",
          "name": "",
          "type": "uint256"
        }
      ],
      "stateMutability": "view",
      "type": "function"
    },
    {
      "inputs": [
        {
          "internalType": "address",
          "name": "to",
          "type": "address"
        },
        {
          "internalType": "uint256",
          "name": "tokenId",
          "type": "uint256"
        }
      ],
      "name": "approve",
      "outputs": [],
      "stateMutability": "nonpayable",
      "type": "function"
    },
    {
      "inputs": [
        {
          "internalType": "address",
          "name": "owner",
          "type": "address"
        }
      ],
      "name": "balanceOf",
      "outputs": [
        {
          "internalType": "uint256",
          "name": "",
          "type": "uint256"
        }
      ],
      "stateMutability": "view",
      "type": "function"
    },
    {
      "inputs": [],
      "name": "baseTokenURI",
      "outputs": [
        {
          "internalType": "string",
          "name": "",
          "type": "string"
        }
      ],
      "stateMutability": "view",
      "type": "function"
    },
    {
      "inputs": [
        {
          "internalType": "uint256",
          "name": "tokenId",
          "type": "uint256"
        }
      ],
      "name": "getApproved",
      "outputs": [
        {
          "internalType": "address",
          "name": "",
          "type": "address"
        }
      ],
      "stateMutability": "view",
      "type": "function"
    },
    {
      "inputs": [
        {
          "internalType": "address",
          "name": "owner",
          "type": "address"
        },
        {
          "internalType": "address",
          "name": "operator",
          "type": "address"
        }
      ],
      "name": "isApprovedForAll",
      "outputs": [
        {
          "internalType": "bool",
          "name": "",
          "type": "bool"
        }
      ],
      "stateMutability": "view",
      "type": "function"
    },
    {
      "inputs": [],
      "name": "merkleRoot",
      "outputs": [
        {
          "internalType": "bytes32",
          "name": "",
          "type": "bytes32"
        }
      ],
      "stateMutability": "view",
      "type": "function"
    },
    {
      "inputs": [
        {
          "internalType": "bytes32[]",
          "name": "_proof",
          "type": "bytes32[]"
        },
        {
          "internalType": "uint256",
          "name": "_genesisAmount",
          "type": "uint256"
        }
      ],
      "name": "mint",
      "outputs": [],
      "stateMutability": "payable",
      "type": "function"
    },
    {
      "inputs": [],
      "name": "mintStatus",
      "outputs": [
        {
          "internalType": "enum Eye.MintStatus",
          "name": "",
          "type": "uint8"
        }
      ],
      "stateMutability": "view",
      "type": "function"
    },
    {
      "inputs": [],
      "name": "name",
      "outputs": [
        {
          "internalType": "string",
          "name": "",
          "type": "string"
        }
      ],
      "stateMutability": "view",
      "type": "function"
    },
    {
      "inputs": [],
      "name": "owner",
      "outputs": [
        {
          "internalType": "address",
          "name": "",
          "type": "address"
        }
      ],
      "stateMutability": "view",
      "type": "function"
    },
    {
      "inputs": [
        {
          "internalType": "uint256",
          "name": "tokenId",
          "type": "uint256"
        }
      ],
      "name": "ownerOf",
      "outputs": [
        {
          "internalType": "address",
          "name": "",
          "type": "address"
        }
      ],
      "stateMutability": "view",
      "type": "function"
    },
    {
      "inputs": [],
      "name": "renounceOwnership",
      "outputs": [],
      "stateMutability": "nonpayable",
      "type": "function"
    },
    {
      "inputs": [
        {
          "internalType": "address",
          "name": "from",
          "type": "address"
        },
        {
          "internalType": "address",
          "name": "to",
          "type": "address"
        },
        {
          "internalType": "uint256",
          "name": "tokenId",
          "type": "uint256"
        }
      ],
      "name": "safeTransferFrom",
      "outputs": [],
      "stateMutability": "nonpayable",
      "type": "function"
    },
    {
      "inputs": [
        {
          "internalType": "address",
          "name": "from",
          "type": "address"
        },
        {
          "internalType": "address",
          "name": "to",
          "type": "address"
        },
        {
          "internalType": "uint256",
          "name": "tokenId",
          "type": "uint256"
        },
        {
          "internalType": "bytes",
          "name": "_data",
          "type": "bytes"
        }
      ],
      "name": "safeTransferFrom",
      "outputs": [],
      "stateMutability": "nonpayable",
      "type": "function"
    },
    {
      "inputs": [
        {
          "internalType": "address",
          "name": "operator",
          "type": "address"
        },
        {
          "internalType": "bool",
          "name": "approved",
          "type": "bool"
        }
      ],
      "name": "setApprovalForAll",
      "outputs": [],
      "stateMutability": "nonpayable",
      "type": "function"
    },
    {
      "inputs": [
        {
          "internalType": "string",
          "name": "_baseTokenURI",
          "type": "string"
        }
      ],
      "name": "setBaseTokenURI",
      "outputs": [],
      "stateMutability": "nonpayable",
      "type": "function"
    },
    {
      "inputs": [
        {
          "internalType": "bytes32",
          "name": "_root",
          "type": "bytes32"
        }
      ],
      "name": "setMerkeRoot",
      "outputs": [],
      "stateMutability": "nonpayable",
      "type": "function"
    },
    {
      "inputs": [
        {
          "internalType": "uint8",
          "name": "_status",
          "type": "uint8"
        }
      ],
      "name": "setStatus",
      "outputs": [],
      "stateMutability": "nonpayable",
      "type": "function"
    },
    {
      "inputs": [
        {
          "internalType": "address",
          "name": "_withdrawDest1",
          "type": "address"
        }
      ],
      "name": "setWithdrawDest1",
      "outputs": [],
      "stateMutability": "nonpayable",
      "type": "function"
    },
    {
      "inputs": [
        {
          "internalType": "bytes4",
          "name": "interfaceId",
          "type": "bytes4"
        }
      ],
      "name": "supportsInterface",
      "outputs": [
        {
          "internalType": "bool",
          "name": "",
          "type": "bool"
        }
      ],
      "stateMutability": "view",
      "type": "function"
    },
    {
      "inputs": [],
      "name": "symbol",
      "outputs": [
        {
          "internalType": "string",
          "name": "",
          "type": "string"
        }
      ],
      "stateMutability": "view",
      "type": "function"
    },
    {
      "inputs": [],
      "name": "tokenCount",
      "outputs": [
        {
          "internalType": "uint256",
          "name": "",
          "type": "uint256"
        }
      ],
      "stateMutability": "view",
      "type": "function"
    },
    {
      "inputs": [
        {
          "internalType": "uint256",
          "name": "tokenId",
          "type": "uint256"
        }
      ],
      "name": "tokenURI",
      "outputs": [
        {
          "internalType": "string",
          "name": "",
          "type": "string"
        }
      ],
      "stateMutability": "view",
      "type": "function"
    },
    {
      "inputs": [
        {
          "internalType": "address",
          "name": "from",
          "type": "address"
        },
        {
          "internalType": "address",
          "name": "to",
          "type": "address"
        },
        {
          "internalType": "uint256",
          "name": "tokenId",
          "type": "uint256"
        }
      ],
      "name": "transferFrom",
      "outputs": [],
      "stateMutability": "nonpayable",
      "type": "function"
    },
    {
      "inputs": [
        {
          "internalType": "address",
          "name": "newOwner",
          "type": "address"
        }
      ],
      "name": "transferOwnership",
      "outputs": [],
      "stateMutability": "nonpayable",
      "type": "function"
    },
    {
      "inputs": [],
      "name": "withdraw",
      "outputs": [],
      "stateMutability": "nonpayable",
      "type": "function"
    },
    {
      "inputs": [],
      "name": "withdrawDest1",
      "outputs": [
        {
          "internalType": "address",
          "name": "",
          "type": "address"
        }
      ],
      "stateMutability": "view",
      "type": "function"
    }
  ],
  "transactionHash": "0x192507e034f9e9a7194ae4753a01ce9060341e650e93f551cce3246d48e126ca",
  "args": [],
  "numDeployments": 1,
  "solcInputHash": "8a338d8d142de43c7f6d608d20fbe13f",
  "bytecode": "0x608060405260405180606001604052806035815260200162004af8603591396008908051906020019062000035929190620002b3565b506000600955732102ae12ded4a8cc8321e656ca213d3eaf6151c4600a60006101000a81548173ffffffffffffffffffffffffffffffffffffffff021916908373ffffffffffffffffffffffffffffffffffffffff1602179055506000600a60146101000a81548160ff02191690836002811115620000dd577f4e487b7100000000000000000000000000000000000000000000000000000000600052602160045260246000fd5b02179055507f71eb2b2e3c82409bb024f8b681245d3eea25dcfd0dc7bbe701ee18cf1e8ecbb160001b600b553480156200011657600080fd5b506040518060400160405280600681526020017f4579654e667400000000000000000000000000000000000000000000000000008152506040518060400160405280600381526020017f455945000000000000000000000000000000000000000000000000000000000081525081600090805190602001906200019b929190620002b3565b508060019080519060200190620001b4929190620002b3565b505050620001d7620001cb620001e560201b60201c565b620001ed60201b60201c565b6001600781905550620003c8565b600033905090565b6000600660009054906101000a900473ffffffffffffffffffffffffffffffffffffffff16905081600660006101000a81548173ffffffffffffffffffffffffffffffffffffffff021916908373ffffffffffffffffffffffffffffffffffffffff1602179055508173ffffffffffffffffffffffffffffffffffffffff168173ffffffffffffffffffffffffffffffffffffffff167f8be0079c531659141344cd1fd0a4f28419497f9722a3daafe3b4186f6b6457e060405160405180910390a35050565b828054620002c19062000363565b90600052602060002090601f016020900481019282620002e5576000855562000331565b82601f106200030057805160ff191683800117855562000331565b8280016001018555821562000331579182015b828111156200033057825182559160200191906001019062000313565b5b50905062000340919062000344565b5090565b5b808211156200035f57600081600090555060010162000345565b5090565b600060028204905060018216806200037c57607f821691505b6020821081141562000393576200039262000399565b5b50919050565b7f4e487b7100000000000000000000000000000000000000000000000000000000600052602260045260246000fd5b61472080620003d86000396000f3fe6080604052600436106101cd5760003560e01c806361869a93116100f75780639da3f8fd11610095578063c87b56dd11610064578063c87b56dd1461062f578063d547cfb71461066c578063e985e9c514610697578063f2fde38b146106d4576101cd565b80639da3f8fd146105875780639f181b5e146105b2578063a22cb465146105dd578063b88d4fde14610606576101cd565b8063715018a6116100d1578063715018a6146104ef5780638d859f3e146105065780638da5cb5b1461053157806395d89b411461055c576101cd565b806361869a931461044a5780636352211e1461047557806370a08231146104b2576101cd565b806327c1c94a1161016f57806332cb6b0c1161013e57806332cb6b0c146103c35780633ccfd60b146103ee57806342842e0e1461040557806345de0d9b1461042e576101cd565b806327c1c94a1461031d5780632e49d78b146103465780632eb4a7ab1461036f57806330176e131461039a576101cd565b8063095ea7b3116101ab578063095ea7b31461027757806313f6536a146102a0578063166b4a4e146102cb57806323b872dd146102f4576101cd565b806301ffc9a7146101d257806306fdde031461020f578063081812fc1461023a575b600080fd5b3480156101de57600080fd5b506101f960048036038101906101f49190612f91565b6106fd565b6040516102069190613650565b60405180910390f35b34801561021b57600080fd5b506102246107df565b60405161023191906136a1565b60405180910390f35b34801561024657600080fd5b50610261600480360381019061025c9190613024565b610871565b60405161026e91906135e9565b60405180910390f35b34801561028357600080fd5b5061029e60048036038101906102999190612ed8565b6108f6565b005b3480156102ac57600080fd5b506102b5610a0e565b6040516102c29190613a63565b60405180910390f35b3480156102d757600080fd5b506102f260048036038101906102ed9190612d6d565b610a13565b005b34801561030057600080fd5b5061031b60048036038101906103169190612dd2565b610ad3565b005b34801561032957600080fd5b50610344600480360381019061033f9190612f68565b610b33565b005b34801561035257600080fd5b5061036d6004803603810190610368919061304d565b610bb9565b005b34801561037b57600080fd5b50610384610cc3565b604051610391919061366b565b60405180910390f35b3480156103a657600080fd5b506103c160048036038101906103bc9190612fe3565b610cc9565b005b3480156103cf57600080fd5b506103d8610d5f565b6040516103e59190613a63565b60405180910390f35b3480156103fa57600080fd5b50610403610d64565b005b34801561041157600080fd5b5061042c60048036038101906104279190612dd2565b610e71565b005b61044860048036038101906104439190612f14565b610e91565b005b34801561045657600080fd5b5061045f6112ba565b60405161046c91906135e9565b60405180910390f35b34801561048157600080fd5b5061049c60048036038101906104979190613024565b6112e0565b6040516104a991906135e9565b60405180910390f35b3480156104be57600080fd5b506104d960048036038101906104d49190612d6d565b611392565b6040516104e69190613a63565b60405180910390f35b3480156104fb57600080fd5b5061050461144a565b005b34801561051257600080fd5b5061051b6114d2565b6040516105289190613a63565b60405180910390f35b34801561053d57600080fd5b506105466114dd565b60405161055391906135e9565b60405180910390f35b34801561056857600080fd5b50610571611507565b60405161057e91906136a1565b60405180910390f35b34801561059357600080fd5b5061059c611599565b6040516105a99190613686565b60405180910390f35b3480156105be57600080fd5b506105c76115ac565b6040516105d49190613a63565b60405180910390f35b3480156105e957600080fd5b5061060460048036038101906105ff9190612e9c565b6115b2565b005b34801561061257600080fd5b5061062d60048036038101906106289190612e21565b6115c8565b005b34801561063b57600080fd5b5061065660048036038101906106519190613024565b61162a565b60405161066391906136a1565b60405180910390f35b34801561067857600080fd5b506106816116d1565b60405161068e91906136a1565b60405180910390f35b3480156106a357600080fd5b506106be60048036038101906106b99190612d96565b61175f565b6040516106cb9190613650565b60405180910390f35b3480156106e057600080fd5b506106fb60048036038101906106f69190612d6d565b6117f3565b005b60007f80ac58cd000000000000000000000000000000000000000000000000000000007bffffffffffffffffffffffffffffffffffffffffffffffffffffffff1916827bffffffffffffffffffffffffffffffffffffffffffffffffffffffff191614806107c857507f5b5e139f000000000000000000000000000000000000000000000000000000007bffffffffffffffffffffffffffffffffffffffffffffffffffffffff1916827bffffffffffffffffffffffffffffffffffffffffffffffffffffffff1916145b806107d857506107d7826118eb565b5b9050919050565b6060600080546107ee90613d86565b80601f016020809104026020016040519081016040528092919081815260200182805461081a90613d86565b80156108675780601f1061083c57610100808354040283529160200191610867565b820191906000526020600020905b81548152906001019060200180831161084a57829003601f168201915b5050505050905090565b600061087c82611955565b6108bb576040517f08c379a00000000000000000000000000000000000000000000000000000000081526004016108b290613903565b60405180910390fd5b6004600083815260200190815260200160002060009054906101000a900473ffffffffffffffffffffffffffffffffffffffff169050919050565b6000610901826112e0565b90508073ffffffffffffffffffffffffffffffffffffffff168373ffffffffffffffffffffffffffffffffffffffff161415610972576040517f08c379a000000000000000000000000000000000000000000000000000000000815260040161096990613983565b60405180910390fd5b8073ffffffffffffffffffffffffffffffffffffffff166109916119c1565b73ffffffffffffffffffffffffffffffffffffffff1614806109c057506109bf816109ba6119c1565b61175f565b5b6109ff576040517f08c379a00000000000000000000000000000000000000000000000000000000081526004016109f690613863565b60405180910390fd5b610a0983836119c9565b505050565b600181565b610a1b6119c1565b73ffffffffffffffffffffffffffffffffffffffff16610a396114dd565b73ffffffffffffffffffffffffffffffffffffffff1614610a8f576040517f08c379a0000000000000000000000000000000000000000000000000000000008152600401610a8690613923565b60405180910390fd5b80600a60006101000a81548173ffffffffffffffffffffffffffffffffffffffff021916908373ffffffffffffffffffffffffffffffffffffffff16021790555050565b610ae4610ade6119c1565b82611a82565b610b23576040517f08c379a0000000000000000000000000000000000000000000000000000000008152600401610b1a906139c3565b60405180910390fd5b610b2e838383611b60565b505050565b610b3b6119c1565b73ffffffffffffffffffffffffffffffffffffffff16610b596114dd565b73ffffffffffffffffffffffffffffffffffffffff1614610baf576040517f08c379a0000000000000000000000000000000000000000000000000000000008152600401610ba690613923565b60405180910390fd5b80600b8190555050565b610bc16119c1565b73ffffffffffffffffffffffffffffffffffffffff16610bdf6114dd565b73ffffffffffffffffffffffffffffffffffffffff1614610c35576040517f08c379a0000000000000000000000000000000000000000000000000000000008152600401610c2c90613923565b60405180910390fd5b8060ff166002811115610c71577f4e487b7100000000000000000000000000000000000000000000000000000000600052602160045260246000fd5b600a60146101000a81548160ff02191690836002811115610cbb577f4e487b7100000000000000000000000000000000000000000000000000000000600052602160045260246000fd5b021790555050565b600b5481565b610cd16119c1565b73ffffffffffffffffffffffffffffffffffffffff16610cef6114dd565b73ffffffffffffffffffffffffffffffffffffffff1614610d45576040517f08c379a0000000000000000000000000000000000000000000000000000000008152600401610d3c90613923565b60405180910390fd5b8060089080519060200190610d5b929190612ad1565b5050565b600a81565b610d6c6119c1565b73ffffffffffffffffffffffffffffffffffffffff16610d8a6114dd565b73ffffffffffffffffffffffffffffffffffffffff1614610de0576040517f08c379a0000000000000000000000000000000000000000000000000000000008152600401610dd790613923565b60405180910390fd5b6000471415610e24576040517f08c379a0000000000000000000000000000000000000000000000000000000008152600401610e1b90613a23565b60405180910390fd5b610e6f47600a60009054906101000a900473ffffffffffffffffffffffffffffffffffffffff1673ffffffffffffffffffffffffffffffffffffffff16611dc790919063ffffffff16565b565b610e8c838383604051806020016040528060008152506115c8565b505050565b8060006002811115610ecc577f4e487b7100000000000000000000000000000000000000000000000000000000600052602160045260246000fd5b600a60149054906101000a900460ff166002811115610f14577f4e487b7100000000000000000000000000000000000000000000000000000000600052602160045260246000fd5b1415610f55576040517f08c379a0000000000000000000000000000000000000000000000000000000008152600401610f4c906138c3565b60405180910390fd5b600a81600954610f659190613b7f565b1115610fa6576040517f08c379a0000000000000000000000000000000000000000000000000000000008152600401610f9d90613703565b60405180910390fd5b600081662386f26fc10000610fbb9190613c06565b9050803414610fff576040517f08c379a0000000000000000000000000000000000000000000000000000000008152600401610ff6906139a3565b60405180910390fd5b3273ffffffffffffffffffffffffffffffffffffffff163373ffffffffffffffffffffffffffffffffffffffff161461106d576040517f08c379a0000000000000000000000000000000000000000000000000000000008152600401611064906136c3565b60405180910390fd5b600260075414156110b3576040517f08c379a00000000000000000000000000000000000000000000000000000000081526004016110aa90613a03565b60405180910390fd5b6002600781905550600160028111156110f5577f4e487b7100000000000000000000000000000000000000000000000000000000600052602160045260246000fd5b600a60149054906101000a900460ff16600281111561113d577f4e487b7100000000000000000000000000000000000000000000000000000000600052602160045260246000fd5b14156111945760018314611186576040517f08c379a000000000000000000000000000000000000000000000000000000000815260040161117d90613943565b60405180910390fd5b61118f84611ebb565b6112ac565b6002808111156111cd577f4e487b7100000000000000000000000000000000000000000000000000000000600052602160045260246000fd5b600a60149054906101000a900460ff166002811115611215577f4e487b7100000000000000000000000000000000000000000000000000000000600052602160045260246000fd5b14156112ab576000831161125e576040517f08c379a000000000000000000000000000000000000000000000000000000000815260040161125590613a43565b60405180910390fd5b600383106112a1576040517f08c379a000000000000000000000000000000000000000000000000000000000815260040161129890613843565b60405180910390fd5b6112aa83612014565b5b5b600160078190555050505050565b600a60009054906101000a900473ffffffffffffffffffffffffffffffffffffffff1681565b6000806002600084815260200190815260200160002060009054906101000a900473ffffffffffffffffffffffffffffffffffffffff169050600073ffffffffffffffffffffffffffffffffffffffff168173ffffffffffffffffffffffffffffffffffffffff161415611389576040517f08c379a0000000000000000000000000000000000000000000000000000000008152600401611380906138a3565b60405180910390fd5b80915050919050565b60008073ffffffffffffffffffffffffffffffffffffffff168273ffffffffffffffffffffffffffffffffffffffff161415611403576040517f08c379a00000000000000000000000000000000000000000000000000000000081526004016113fa90613883565b60405180910390fd5b600360008373ffffffffffffffffffffffffffffffffffffffff1673ffffffffffffffffffffffffffffffffffffffff168152602001908152602001600020549050919050565b6114526119c1565b73ffffffffffffffffffffffffffffffffffffffff166114706114dd565b73ffffffffffffffffffffffffffffffffffffffff16146114c6576040517f08c379a00000000000000000000000000000000000000000000000000000000081526004016114bd90613923565b60405180910390fd5b6114d060006120e2565b565b662386f26fc1000081565b6000600660009054906101000a900473ffffffffffffffffffffffffffffffffffffffff16905090565b60606001805461151690613d86565b80601f016020809104026020016040519081016040528092919081815260200182805461154290613d86565b801561158f5780601f106115645761010080835404028352916020019161158f565b820191906000526020600020905b81548152906001019060200180831161157257829003601f168201915b5050505050905090565b600a60149054906101000a900460ff1681565b60095481565b6115c46115bd6119c1565b83836121a8565b5050565b6115d96115d36119c1565b83611a82565b611618576040517f08c379a000000000000000000000000000000000000000000000000000000000815260040161160f906139c3565b60405180910390fd5b61162484848484612315565b50505050565b606061163582611955565b611674576040517f08c379a000000000000000000000000000000000000000000000000000000000815260040161166b90613963565b60405180910390fd5b600061167e612371565b9050600081511161169e57604051806020016040528060008152506116c9565b806116a884612403565b6040516020016116b99291906135b0565b6040516020818303038152906040525b915050919050565b600880546116de90613d86565b80601f016020809104026020016040519081016040528092919081815260200182805461170a90613d86565b80156117575780601f1061172c57610100808354040283529160200191611757565b820191906000526020600020905b81548152906001019060200180831161173a57829003601f168201915b505050505081565b6000600560008473ffffffffffffffffffffffffffffffffffffffff1673ffffffffffffffffffffffffffffffffffffffff16815260200190815260200160002060008373ffffffffffffffffffffffffffffffffffffffff1673ffffffffffffffffffffffffffffffffffffffff16815260200190815260200160002060009054906101000a900460ff16905092915050565b6117fb6119c1565b73ffffffffffffffffffffffffffffffffffffffff166118196114dd565b73ffffffffffffffffffffffffffffffffffffffff161461186f576040517f08c379a000000000000000000000000000000000000000000000000000000000815260040161186690613923565b60405180910390fd5b600073ffffffffffffffffffffffffffffffffffffffff168173ffffffffffffffffffffffffffffffffffffffff1614156118df576040517f08c379a00000000000000000000000000000000000000000000000000000000081526004016118d690613743565b60405180910390fd5b6118e8816120e2565b50565b60007f01ffc9a7000000000000000000000000000000000000000000000000000000007bffffffffffffffffffffffffffffffffffffffffffffffffffffffff1916827bffffffffffffffffffffffffffffffffffffffffffffffffffffffff1916149050919050565b60008073ffffffffffffffffffffffffffffffffffffffff166002600084815260200190815260200160002060009054906101000a900473ffffffffffffffffffffffffffffffffffffffff1673ffffffffffffffffffffffffffffffffffffffff1614159050919050565b600033905090565b816004600083815260200190815260200160002060006101000a81548173ffffffffffffffffffffffffffffffffffffffff021916908373ffffffffffffffffffffffffffffffffffffffff160217905550808273ffffffffffffffffffffffffffffffffffffffff16611a3c836112e0565b73ffffffffffffffffffffffffffffffffffffffff167f8c5be1e5ebec7d5bd14f71427d1e84f3dd0314c0f7b2291e5b200ac8c7c3b92560405160405180910390a45050565b6000611a8d82611955565b611acc576040517f08c379a0000000000000000000000000000000000000000000000000000000008152600401611ac390613823565b60405180910390fd5b6000611ad7836112e0565b90508073ffffffffffffffffffffffffffffffffffffffff168473ffffffffffffffffffffffffffffffffffffffff161480611b4657508373ffffffffffffffffffffffffffffffffffffffff16611b2e84610871565b73ffffffffffffffffffffffffffffffffffffffff16145b80611b575750611b56818561175f565b5b91505092915050565b8273ffffffffffffffffffffffffffffffffffffffff16611b80826112e0565b73ffffffffffffffffffffffffffffffffffffffff1614611bd6576040517f08c379a0000000000000000000000000000000000000000000000000000000008152600401611bcd90613763565b60405180910390fd5b600073ffffffffffffffffffffffffffffffffffffffff168273ffffffffffffffffffffffffffffffffffffffff161415611c46576040517f08c379a0000000000000000000000000000000000000000000000000000000008152600401611c3d906137a3565b60405180910390fd5b611c518383836125b0565b611c5c6000826119c9565b6001600360008573ffffffffffffffffffffffffffffffffffffffff1673ffffffffffffffffffffffffffffffffffffffff1681526020019081526020016000206000828254611cac9190613c60565b925050819055506001600360008473ffffffffffffffffffffffffffffffffffffffff1673ffffffffffffffffffffffffffffffffffffffff1681526020019081526020016000206000828254611d039190613b7f565b92505081905550816002600083815260200190815260200160002060006101000a81548173ffffffffffffffffffffffffffffffffffffffff021916908373ffffffffffffffffffffffffffffffffffffffff160217905550808273ffffffffffffffffffffffffffffffffffffffff168473ffffffffffffffffffffffffffffffffffffffff167fddf252ad1be2c89b69c2b068fc378daa952ba7f163c4a11628f55a4df523b3ef60405160405180910390a4611dc28383836125b5565b505050565b80471015611e0a576040517f08c379a0000000000000000000000000000000000000000000000000000000008152600401611e0190613803565b60405180910390fd5b60008273ffffffffffffffffffffffffffffffffffffffff1682604051611e30906135d4565b60006040518083038185875af1925050503d8060008114611e6d576040519150601f19603f3d011682016040523d82523d6000602084013e611e72565b606091505b5050905080611eb6576040517f08c379a0000000000000000000000000000000000000000000000000000000008152600401611ead906137e3565b60405180910390fd5b505050565b611eee81600b5433604051602001611ed39190613595565b604051602081830303815290604052805190602001206125ba565b611f2d576040517f08c379a0000000000000000000000000000000000000000000000000000000008152600401611f24906139e3565b60405180910390fd5b6001600c60003373ffffffffffffffffffffffffffffffffffffffff1673ffffffffffffffffffffffffffffffffffffffff1681526020019081526020016000205410611faf576040517f08c379a0000000000000000000000000000000000000000000000000000000008152600401611fa6906136e3565b60405180910390fd5b611fba3360016125d1565b6001600c60003373ffffffffffffffffffffffffffffffffffffffff1673ffffffffffffffffffffffffffffffffffffffff168152602001908152602001600020600082825461200a9190613b7f565b9250508190555050565b60028081111561204d577f4e487b7100000000000000000000000000000000000000000000000000000000600052602160045260246000fd5b600a60149054906101000a900460ff166002811115612095577f4e487b7100000000000000000000000000000000000000000000000000000000600052602160045260246000fd5b146120d5576040517f08c379a00000000000000000000000000000000000000000000000000000000081526004016120cc906138c3565b60405180910390fd5b6120df33826125d1565b50565b6000600660009054906101000a900473ffffffffffffffffffffffffffffffffffffffff16905081600660006101000a81548173ffffffffffffffffffffffffffffffffffffffff021916908373ffffffffffffffffffffffffffffffffffffffff1602179055508173ffffffffffffffffffffffffffffffffffffffff168173ffffffffffffffffffffffffffffffffffffffff167f8be0079c531659141344cd1fd0a4f28419497f9722a3daafe3b4186f6b6457e060405160405180910390a35050565b8173ffffffffffffffffffffffffffffffffffffffff168373ffffffffffffffffffffffffffffffffffffffff161415612217576040517f08c379a000000000000000000000000000000000000000000000000000000000815260040161220e906137c3565b60405180910390fd5b80600560008573ffffffffffffffffffffffffffffffffffffffff1673ffffffffffffffffffffffffffffffffffffffff16815260200190815260200160002060008473ffffffffffffffffffffffffffffffffffffffff1673ffffffffffffffffffffffffffffffffffffffff16815260200190815260200160002060006101000a81548160ff0219169083151502179055508173ffffffffffffffffffffffffffffffffffffffff168373ffffffffffffffffffffffffffffffffffffffff167f17307eab39ab6107e8899845ad3d59bd9653f200f220920489ca2b5937696c31836040516123089190613650565b60405180910390a3505050565b612320848484611b60565b61232c84848484612612565b61236b576040517f08c379a000000000000000000000000000000000000000000000000000000000815260040161236290613723565b60405180910390fd5b50505050565b60606008805461238090613d86565b80601f01602080910402602001604051908101604052809291908181526020018280546123ac90613d86565b80156123f95780601f106123ce576101008083540402835291602001916123f9565b820191906000526020600020905b8154815290600101906020018083116123dc57829003601f168201915b5050505050905090565b6060600082141561244b576040518060400160405280600181526020017f300000000000000000000000000000000000000000000000000000000000000081525090506125ab565b600082905060005b6000821461247d57808061246690613de9565b915050600a826124769190613bd5565b9150612453565b60008167ffffffffffffffff8111156124bf577f4e487b7100000000000000000000000000000000000000000000000000000000600052604160045260246000fd5b6040519080825280601f01601f1916602001820160405280156124f15781602001600182028036833780820191505090505b5090505b600085146125a45760018261250a9190613c60565b9150600a856125199190613e56565b60306125259190613b7f565b60f81b818381518110612561577f4e487b7100000000000000000000000000000000000000000000000000000000600052603260045260246000fd5b60200101907effffffffffffffffffffffffffffffffffffffffffffffffffffffffffffff1916908160001a905350600a8561259d9190613bd5565b94506124f5565b8093505050505b919050565b505050565b505050565b6000826125c785846127a9565b1490509392505050565b60005b8181101561260d576125fa836009600081546125ef90613de9565b919050819055612844565b808061260590613de9565b9150506125d4565b505050565b60006126338473ffffffffffffffffffffffffffffffffffffffff16612862565b1561279c578373ffffffffffffffffffffffffffffffffffffffff1663150b7a0261265c6119c1565b8786866040518563ffffffff1660e01b815260040161267e9493929190613604565b602060405180830381600087803b15801561269857600080fd5b505af19250505080156126c957506040513d601f19601f820116820180604052508101906126c69190612fba565b60015b61274c573d80600081146126f9576040519150601f19603f3d011682016040523d82523d6000602084013e6126fe565b606091505b50600081511415612744576040517f08c379a000000000000000000000000000000000000000000000000000000000815260040161273b90613723565b60405180910390fd5b805181602001fd5b63150b7a0260e01b7bffffffffffffffffffffffffffffffffffffffffffffffffffffffff1916817bffffffffffffffffffffffffffffffffffffffffffffffffffffffff1916149150506127a1565b600190505b949350505050565b60008082905060005b84518110156128395760008582815181106127f6577f4e487b7100000000000000000000000000000000000000000000000000000000600052603260045260246000fd5b60200260200101519050808311612818576128118382612885565b9250612825565b6128228184612885565b92505b50808061283190613de9565b9150506127b2565b508091505092915050565b61285e82826040518060200160405280600081525061289c565b5050565b6000808273ffffffffffffffffffffffffffffffffffffffff163b119050919050565b600082600052816020526040600020905092915050565b6128a683836128f7565b6128b36000848484612612565b6128f2576040517f08c379a00000000000000000000000000000000000000000000000000000000081526004016128e990613723565b60405180910390fd5b505050565b600073ffffffffffffffffffffffffffffffffffffffff168273ffffffffffffffffffffffffffffffffffffffff161415612967576040517f08c379a000000000000000000000000000000000000000000000000000000000815260040161295e906138e3565b60405180910390fd5b61297081611955565b156129b0576040517f08c379a00000000000000000000000000000000000000000000000000000000081526004016129a790613783565b60405180910390fd5b6129bc600083836125b0565b6001600360008473ffffffffffffffffffffffffffffffffffffffff1673ffffffffffffffffffffffffffffffffffffffff1681526020019081526020016000206000828254612a0c9190613b7f565b92505081905550816002600083815260200190815260200160002060006101000a81548173ffffffffffffffffffffffffffffffffffffffff021916908373ffffffffffffffffffffffffffffffffffffffff160217905550808273ffffffffffffffffffffffffffffffffffffffff16600073ffffffffffffffffffffffffffffffffffffffff167fddf252ad1be2c89b69c2b068fc378daa952ba7f163c4a11628f55a4df523b3ef60405160405180910390a4612acd600083836125b5565b5050565b828054612add90613d86565b90600052602060002090601f016020900481019282612aff5760008555612b46565b82601f10612b1857805160ff1916838001178555612b46565b82800160010185558215612b46579182015b82811115612b45578251825591602001919060010190612b2a565b5b509050612b539190612b57565b5090565b5b80821115612b70576000816000905550600101612b58565b5090565b6000612b87612b8284613aa3565b613a7e565b90508083825260208201905082856020860282011115612ba657600080fd5b60005b85811015612bd65781612bbc8882612cb0565b845260208401935060208301925050600181019050612ba9565b5050509392505050565b6000612bf3612bee84613acf565b613a7e565b905082815260208101848484011115612c0b57600080fd5b612c16848285613d44565b509392505050565b6000612c31612c2c84613b00565b613a7e565b905082815260208101848484011115612c4957600080fd5b612c54848285613d44565b509392505050565b600081359050612c6b81614660565b92915050565b600082601f830112612c8257600080fd5b8135612c92848260208601612b74565b91505092915050565b600081359050612caa81614677565b92915050565b600081359050612cbf8161468e565b92915050565b600081359050612cd4816146a5565b92915050565b600081519050612ce9816146a5565b92915050565b600082601f830112612d0057600080fd5b8135612d10848260208601612be0565b91505092915050565b600082601f830112612d2a57600080fd5b8135612d3a848260208601612c1e565b91505092915050565b600081359050612d52816146bc565b92915050565b600081359050612d67816146d3565b92915050565b600060208284031215612d7f57600080fd5b6000612d8d84828501612c5c565b91505092915050565b60008060408385031215612da957600080fd5b6000612db785828601612c5c565b9250506020612dc885828601612c5c565b9150509250929050565b600080600060608486031215612de757600080fd5b6000612df586828701612c5c565b9350506020612e0686828701612c5c565b9250506040612e1786828701612d43565b9150509250925092565b60008060008060808587031215612e3757600080fd5b6000612e4587828801612c5c565b9450506020612e5687828801612c5c565b9350506040612e6787828801612d43565b925050606085013567ffffffffffffffff811115612e8457600080fd5b612e9087828801612cef565b91505092959194509250565b60008060408385031215612eaf57600080fd5b6000612ebd85828601612c5c565b9250506020612ece85828601612c9b565b9150509250929050565b60008060408385031215612eeb57600080fd5b6000612ef985828601612c5c565b9250506020612f0a85828601612d43565b9150509250929050565b60008060408385031215612f2757600080fd5b600083013567ffffffffffffffff811115612f4157600080fd5b612f4d85828601612c71565b9250506020612f5e85828601612d43565b9150509250929050565b600060208284031215612f7a57600080fd5b6000612f8884828501612cb0565b91505092915050565b600060208284031215612fa357600080fd5b6000612fb184828501612cc5565b91505092915050565b600060208284031215612fcc57600080fd5b6000612fda84828501612cda565b91505092915050565b600060208284031215612ff557600080fd5b600082013567ffffffffffffffff81111561300f57600080fd5b61301b84828501612d19565b91505092915050565b60006020828403121561303657600080fd5b600061304484828501612d43565b91505092915050565b60006020828403121561305f57600080fd5b600061306d84828501612d58565b91505092915050565b61307f81613c94565b82525050565b61309661309182613c94565b613e32565b82525050565b6130a581613ca6565b82525050565b6130b481613cb2565b82525050565b60006130c582613b31565b6130cf8185613b47565b93506130df818560208601613d53565b6130e881613f72565b840191505092915050565b6130fc81613d32565b82525050565b600061310d82613b3c565b6131178185613b63565b9350613127818560208601613d53565b61313081613f72565b840191505092915050565b600061314682613b3c565b6131508185613b74565b9350613160818560208601613d53565b80840191505092915050565b6000613179601d83613b63565b915061318482613f90565b602082019050919050565b600061319c603283613b63565b91506131a782613fb9565b604082019050919050565b60006131bf601183613b63565b91506131ca82614008565b602082019050919050565b60006131e2603283613b63565b91506131ed82614031565b604082019050919050565b6000613205602683613b63565b915061321082614080565b604082019050919050565b6000613228602583613b63565b9150613233826140cf565b604082019050919050565b600061324b601c83613b63565b91506132568261411e565b602082019050919050565b600061326e602483613b63565b915061327982614147565b604082019050919050565b6000613291601983613b63565b915061329c82614196565b602082019050919050565b60006132b4603a83613b63565b91506132bf826141bf565b604082019050919050565b60006132d7601d83613b63565b91506132e28261420e565b602082019050919050565b60006132fa602c83613b63565b915061330582614237565b604082019050919050565b600061331d601783613b63565b915061332882614286565b602082019050919050565b6000613340603883613b63565b915061334b826142af565b604082019050919050565b6000613363602a83613b63565b915061336e826142fe565b604082019050919050565b6000613386602983613b63565b91506133918261434d565b604082019050919050565b60006133a9601183613b63565b91506133b48261439c565b602082019050919050565b60006133cc602083613b63565b91506133d7826143c5565b602082019050919050565b60006133ef602c83613b63565b91506133fa826143ee565b604082019050919050565b6000613412602083613b63565b915061341d8261443d565b602082019050919050565b6000613435601f83613b63565b915061344082614466565b602082019050919050565b6000613458602f83613b63565b91506134638261448f565b604082019050919050565b600061347b602183613b63565b9150613486826144de565b604082019050919050565b600061349e601983613b63565b91506134a98261452d565b602082019050919050565b60006134c1600083613b58565b91506134cc82614556565b600082019050919050565b60006134e4603183613b63565b91506134ef82614559565b604082019050919050565b6000613507600f83613b63565b9150613512826145a8565b602082019050919050565b600061352a601f83613b63565b9150613535826145d1565b602082019050919050565b600061354d600f83613b63565b9150613558826145fa565b602082019050919050565b6000613570602083613b63565b915061357b82614623565b602082019050919050565b61358f81613d1b565b82525050565b60006135a18284613085565b60148201915081905092915050565b60006135bc828561313b565b91506135c8828461313b565b91508190509392505050565b60006135df826134b4565b9150819050919050565b60006020820190506135fe6000830184613076565b92915050565b60006080820190506136196000830187613076565b6136266020830186613076565b6136336040830185613586565b818103606083015261364581846130ba565b905095945050505050565b6000602082019050613665600083018461309c565b92915050565b600060208201905061368060008301846130ab565b92915050565b600060208201905061369b60008301846130f3565b92915050565b600060208201905081810360008301526136bb8184613102565b905092915050565b600060208201905081810360008301526136dc8161316c565b9050919050565b600060208201905081810360008301526136fc8161318f565b9050919050565b6000602082019050818103600083015261371c816131b2565b9050919050565b6000602082019050818103600083015261373c816131d5565b9050919050565b6000602082019050818103600083015261375c816131f8565b9050919050565b6000602082019050818103600083015261377c8161321b565b9050919050565b6000602082019050818103600083015261379c8161323e565b9050919050565b600060208201905081810360008301526137bc81613261565b9050919050565b600060208201905081810360008301526137dc81613284565b9050919050565b600060208201905081810360008301526137fc816132a7565b9050919050565b6000602082019050818103600083015261381c816132ca565b9050919050565b6000602082019050818103600083015261383c816132ed565b9050919050565b6000602082019050818103600083015261385c81613310565b9050919050565b6000602082019050818103600083015261387c81613333565b9050919050565b6000602082019050818103600083015261389c81613356565b9050919050565b600060208201905081810360008301526138bc81613379565b9050919050565b600060208201905081810360008301526138dc8161339c565b9050919050565b600060208201905081810360008301526138fc816133bf565b9050919050565b6000602082019050818103600083015261391c816133e2565b9050919050565b6000602082019050818103600083015261393c81613405565b9050919050565b6000602082019050818103600083015261395c81613428565b9050919050565b6000602082019050818103600083015261397c8161344b565b9050919050565b6000602082019050818103600083015261399c8161346e565b9050919050565b600060208201905081810360008301526139bc81613491565b9050919050565b600060208201905081810360008301526139dc816134d7565b9050919050565b600060208201905081810360008301526139fc816134fa565b9050919050565b60006020820190508181036000830152613a1c8161351d565b9050919050565b60006020820190508181036000830152613a3c81613540565b9050919050565b60006020820190508181036000830152613a5c81613563565b9050919050565b6000602082019050613a786000830184613586565b92915050565b6000613a88613a99565b9050613a948282613db8565b919050565b6000604051905090565b600067ffffffffffffffff821115613abe57613abd613f43565b5b602082029050602081019050919050565b600067ffffffffffffffff821115613aea57613ae9613f43565b5b613af382613f72565b9050602081019050919050565b600067ffffffffffffffff821115613b1b57613b1a613f43565b5b613b2482613f72565b9050602081019050919050565b600081519050919050565b600081519050919050565b600082825260208201905092915050565b600081905092915050565b600082825260208201905092915050565b600081905092915050565b6000613b8a82613d1b565b9150613b9583613d1b565b9250827fffffffffffffffffffffffffffffffffffffffffffffffffffffffffffffffff03821115613bca57613bc9613e87565b5b828201905092915050565b6000613be082613d1b565b9150613beb83613d1b565b925082613bfb57613bfa613eb6565b5b828204905092915050565b6000613c1182613d1b565b9150613c1c83613d1b565b9250817fffffffffffffffffffffffffffffffffffffffffffffffffffffffffffffffff0483118215151615613c5557613c54613e87565b5b828202905092915050565b6000613c6b82613d1b565b9150613c7683613d1b565b925082821015613c8957613c88613e87565b5b828203905092915050565b6000613c9f82613cfb565b9050919050565b60008115159050919050565b6000819050919050565b60007fffffffff0000000000000000000000000000000000000000000000000000000082169050919050565b6000819050613cf68261464c565b919050565b600073ffffffffffffffffffffffffffffffffffffffff82169050919050565b6000819050919050565b600060ff82169050919050565b6000613d3d82613ce8565b9050919050565b82818337600083830152505050565b60005b83811015613d71578082015181840152602081019050613d56565b83811115613d80576000848401525b50505050565b60006002820490506001821680613d9e57607f821691505b60208210811415613db257613db1613f14565b5b50919050565b613dc182613f72565b810181811067ffffffffffffffff82111715613de057613ddf613f43565b5b80604052505050565b6000613df482613d1b565b91507fffffffffffffffffffffffffffffffffffffffffffffffffffffffffffffffff821415613e2757613e26613e87565b5b600182019050919050565b6000613e3d82613e44565b9050919050565b6000613e4f82613f83565b9050919050565b6000613e6182613d1b565b9150613e6c83613d1b565b925082613e7c57613e7b613eb6565b5b828206905092915050565b7f4e487b7100000000000000000000000000000000000000000000000000000000600052601160045260246000fd5b7f4e487b7100000000000000000000000000000000000000000000000000000000600052601260045260246000fd5b7f4e487b7100000000000000000000000000000000000000000000000000000000600052602160045260246000fd5b7f4e487b7100000000000000000000000000000000000000000000000000000000600052602260045260246000fd5b7f4e487b7100000000000000000000000000000000000000000000000000000000600052604160045260246000fd5b6000601f19601f8301169050919050565b60008160601b9050919050565b7f436f6e747261637473206e6f7420616c6c6f77656420746f206d696e74000000600082015250565b7f596f752063616e206f6e6c79206d696e7420312067656e65736973204e46542060008201527f647572696e67207468652070726573616c650000000000000000000000000000602082015250565b7f4e6f7420656e6f75676820737570706c79000000000000000000000000000000600082015250565b7f4552433732313a207472616e7366657220746f206e6f6e20455243373231526560008201527f63656976657220696d706c656d656e7465720000000000000000000000000000602082015250565b7f4f776e61626c653a206e6577206f776e657220697320746865207a65726f206160008201527f6464726573730000000000000000000000000000000000000000000000000000602082015250565b7f4552433732313a207472616e736665722066726f6d20696e636f72726563742060008201527f6f776e6572000000000000000000000000000000000000000000000000000000602082015250565b7f4552433732313a20746f6b656e20616c7265616479206d696e74656400000000600082015250565b7f4552433732313a207472616e7366657220746f20746865207a65726f2061646460008201527f7265737300000000000000000000000000000000000000000000000000000000602082015250565b7f4552433732313a20617070726f766520746f2063616c6c657200000000000000600082015250565b7f416464726573733a20756e61626c6520746f2073656e642076616c75652c207260008201527f6563697069656e74206d61792068617665207265766572746564000000000000602082015250565b7f416464726573733a20696e73756666696369656e742062616c616e6365000000600082015250565b7f4552433732313a206f70657261746f7220717565727920666f72206e6f6e657860008201527f697374656e7420746f6b656e0000000000000000000000000000000000000000602082015250565b7f4d696e74696e67206c696d697473206578636565646564000000000000000000600082015250565b7f4552433732313a20617070726f76652063616c6c6572206973206e6f74206f7760008201527f6e6572206e6f7220617070726f76656420666f7220616c6c0000000000000000602082015250565b7f4552433732313a2062616c616e636520717565727920666f7220746865207a6560008201527f726f206164647265737300000000000000000000000000000000000000000000602082015250565b7f4552433732313a206f776e657220717565727920666f72206e6f6e657869737460008201527f656e7420746f6b656e0000000000000000000000000000000000000000000000602082015250565b7f57726f6e67206d696e7420737461747573000000000000000000000000000000600082015250565b7f4552433732313a206d696e7420746f20746865207a65726f2061646472657373600082015250565b7f4552433732313a20617070726f76656420717565727920666f72206e6f6e657860008201527f697374656e7420746f6b656e0000000000000000000000000000000000000000602082015250565b7f4f776e61626c653a2063616c6c6572206973206e6f7420746865206f776e6572600082015250565b7f4d757374206d696e742065786163746c7920312067656e65736973204e465400600082015250565b7f4552433732314d657461646174613a2055524920717565727920666f72206e6f60008201527f6e6578697374656e7420746f6b656e0000000000000000000000000000000000602082015250565b7f4552433732313a20617070726f76616c20746f2063757272656e74206f776e6560008201527f7200000000000000000000000000000000000000000000000000000000000000602082015250565b7f45746865722073656e74206973206e6f7420636f727265637400000000000000600082015250565b50565b7f4552433732313a207472616e736665722063616c6c6572206973206e6f74206f60008201527f776e6572206e6f7220617070726f766564000000000000000000000000000000602082015250565b7f6e6f742077686974656c69737465640000000000000000000000000000000000600082015250565b7f5265656e7472616e637947756172643a207265656e7472616e742063616c6c00600082015250565b7f42616c616e6365206973207a65726f0000000000000000000000000000000000600082015250565b7f4d757374206d696e74206174206c6561737420312067656e65736973204e4654600082015250565b6003811061465d5761465c613ee5565b5b50565b61466981613c94565b811461467457600080fd5b50565b61468081613ca6565b811461468b57600080fd5b50565b61469781613cb2565b81146146a257600080fd5b50565b6146ae81613cbc565b81146146b957600080fd5b50565b6146c581613d1b565b81146146d057600080fd5b50565b6146dc81613d25565b81146146e757600080fd5b5056fea2646970667358221220143ba012b3d6226b5f9e83276d1514aafe381131400c40994e65cc28b91c7dc164736f6c63430008010033697066733a2f2f516d6450695246747065597a6e746b4864684a48777967454d584877506b78695473326356646b37746146623259",
  "devdoc": {
    "kind": "dev",
    "methods": {
      "approve(address,uint256)": {
        "details": "See {IERC721-approve}."
      },
      "balanceOf(address)": {
        "details": "See {IERC721-balanceOf}."
      },
      "getApproved(uint256)": {
        "details": "See {IERC721-getApproved}."
      },
      "isApprovedForAll(address,address)": {
        "details": "See {IERC721-isApprovedForAll}."
      },
      "name()": {
        "details": "See {IERC721Metadata-name}."
      },
      "owner()": {
        "details": "Returns the address of the current owner."
      },
      "ownerOf(uint256)": {
        "details": "See {IERC721-ownerOf}."
      },
      "renounceOwnership()": {
        "details": "Leaves the contract without owner. It will not be possible to call `onlyOwner` functions anymore. Can only be called by the current owner. NOTE: Renouncing ownership will leave the contract without an owner, thereby removing any functionality that is only available to the owner."
      },
      "safeTransferFrom(address,address,uint256)": {
        "details": "See {IERC721-safeTransferFrom}."
      },
      "safeTransferFrom(address,address,uint256,bytes)": {
        "details": "See {IERC721-safeTransferFrom}."
      },
      "setApprovalForAll(address,bool)": {
        "details": "See {IERC721-setApprovalForAll}."
      },
      "supportsInterface(bytes4)": {
        "details": "See {IERC165-supportsInterface}."
      },
      "symbol()": {
        "details": "See {IERC721Metadata-symbol}."
      },
      "tokenURI(uint256)": {
        "details": "See {IERC721Metadata-tokenURI}."
      },
      "transferFrom(address,address,uint256)": {
        "details": "See {IERC721-transferFrom}."
      },
      "transferOwnership(address)": {
        "details": "Transfers ownership of the contract to a new account (`newOwner`). Can only be called by the current owner."
      }
    },
    "version": 1
  },
  "userdoc": {
    "kind": "user",
    "methods": {},
    "version": 1
  },
  "storageLayout": {
    "storage": [
      {
        "astId": 170,
        "contract": "contracts/Eye.sol:Eye",
        "label": "_name",
        "offset": 0,
        "slot": "0",
        "type": "t_string_storage"
      },
      {
        "astId": 172,
        "contract": "contracts/Eye.sol:Eye",
        "label": "_symbol",
        "offset": 0,
        "slot": "1",
        "type": "t_string_storage"
      },
      {
        "astId": 176,
        "contract": "contracts/Eye.sol:Eye",
        "label": "_owners",
        "offset": 0,
        "slot": "2",
        "type": "t_mapping(t_uint256,t_address)"
      },
      {
        "astId": 180,
        "contract": "contracts/Eye.sol:Eye",
        "label": "_balances",
        "offset": 0,
        "slot": "3",
        "type": "t_mapping(t_address,t_uint256)"
      },
      {
        "astId": 184,
        "contract": "contracts/Eye.sol:Eye",
        "label": "_tokenApprovals",
        "offset": 0,
        "slot": "4",
        "type": "t_mapping(t_uint256,t_address)"
      },
      {
        "astId": 190,
        "contract": "contracts/Eye.sol:Eye",
        "label": "_operatorApprovals",
        "offset": 0,
        "slot": "5",
        "type": "t_mapping(t_address,t_mapping(t_address,t_bool))"
      },
      {
        "astId": 7,
        "contract": "contracts/Eye.sol:Eye",
        "label": "_owner",
        "offset": 0,
        "slot": "6",
        "type": "t_address"
      },
      {
        "astId": 115,
        "contract": "contracts/Eye.sol:Eye",
        "label": "_status",
        "offset": 0,
        "slot": "7",
        "type": "t_uint256"
      },
      {
        "astId": 1984,
        "contract": "contracts/Eye.sol:Eye",
        "label": "baseTokenURI",
        "offset": 0,
        "slot": "8",
        "type": "t_string_storage"
      },
      {
        "astId": 1987,
        "contract": "contracts/Eye.sol:Eye",
        "label": "tokenCount",
        "offset": 0,
        "slot": "9",
        "type": "t_uint256"
      },
      {
        "astId": 1990,
        "contract": "contracts/Eye.sol:Eye",
        "label": "withdrawDest1",
        "offset": 0,
        "slot": "10",
        "type": "t_address"
      },
      {
        "astId": 1995,
        "contract": "contracts/Eye.sol:Eye",
        "label": "mintStatus",
        "offset": 20,
        "slot": "10",
        "type": "t_enum(MintStatus)1972"
      },
      {
        "astId": 1998,
        "contract": "contracts/Eye.sol:Eye",
        "label": "merkleRoot",
        "offset": 0,
        "slot": "11",
        "type": "t_bytes32"
      },
      {
        "astId": 2002,
        "contract": "contracts/Eye.sol:Eye",
        "label": "_tokensMintedByAddressAtPresale",
        "offset": 0,
        "slot": "12",
        "type": "t_mapping(t_address,t_uint256)"
      }
    ],
    "types": {
      "t_address": {
        "encoding": "inplace",
        "label": "address",
        "numberOfBytes": "20"
      },
      "t_bool": {
        "encoding": "inplace",
        "label": "bool",
        "numberOfBytes": "1"
      },
      "t_bytes32": {
        "encoding": "inplace",
        "label": "bytes32",
        "numberOfBytes": "32"
      },
      "t_enum(MintStatus)1972": {
        "encoding": "inplace",
        "label": "enum Eye.MintStatus",
        "numberOfBytes": "1"
      },
      "t_mapping(t_address,t_bool)": {
        "encoding": "mapping",
        "key": "t_address",
        "label": "mapping(address => bool)",
        "numberOfBytes": "32",
        "value": "t_bool"
      },
      "t_mapping(t_address,t_mapping(t_address,t_bool))": {
        "encoding": "mapping",
        "key": "t_address",
        "label": "mapping(address => mapping(address => bool))",
        "numberOfBytes": "32",
        "value": "t_mapping(t_address,t_bool)"
      },
      "t_mapping(t_address,t_uint256)": {
        "encoding": "mapping",
        "key": "t_address",
        "label": "mapping(address => uint256)",
        "numberOfBytes": "32",
        "value": "t_uint256"
      },
      "t_mapping(t_uint256,t_address)": {
        "encoding": "mapping",
        "key": "t_uint256",
        "label": "mapping(uint256 => address)",
        "numberOfBytes": "32",
        "value": "t_address"
      },
      "t_string_storage": {
        "encoding": "bytes",
        "label": "string",
        "numberOfBytes": "32"
      },
      "t_uint256": {
        "encoding": "inplace",
        "label": "uint256",
        "numberOfBytes": "32"
      }
    }
  }
}